:020000040800F2
:10000000E03D00209D8F00083D6B00083F6B00081D
:10001000556B00086B6B0008816B00080000000046
:10002000000000000000000000000000976B0008C6
:10003000996B0008000000009B6B00089D6B000896
:10004000B78F0008B78F0008B78F0008B78F000878
:10005000B78F0008B78F0008B78F0008B78F000868
:10006000B78F0008B78F0008B78F0008B78F000858
:10007000B78F0008B78F00086B120008FD11000849
:10008000B78F0008B78F0008B78F0008B78F000838
:1000900045510008B78F0008B78F0008A96B00080A
:1000A000B78F0008B78F0008B78F0008B78F000818
:1000B000B96B0008B78F0008B78F0008B78F00082A
:1000C000B78F0008B78F0008B78F0008B78F0008F8
:1000D000B78F0008B78F0008F31D0008B78F00081E
:1000E000B78F0008B78F000849510008DFF80CD01F
:1000F0000DF006FF00480047116B0008E03D0020AE
:10010000F0B507460020059E04460546A9B1844681
:100110009EB1761E8C4212D2B04210D217F804E083
:10012000964508D1A54205D03D4443F8205007F834
:1001300004C0401C651C641CECE70020F0BD8D422F
:1001400003D2791943F82010401C43F820C0F0BDB9
:100150002DE9F04F0024A1B08B4682464FF0FF36C8
:100160004FF02009A0462746802101A80CF0BFFFD0
:100170002CA150460CF0C6FFB0B32B4D0FE05046FB
:100180000CF0C0FF040009D055F837000CF0CCFF8C
:100190000444A4EB0A001FFA80F804E07F1C55F821
:1001A00037100029EBD120783F2804D00D2810D03B
:1001B0003D281AD034E060780D2831D1A0780A2883
:1001C0002ED105EBC700436873B101AA494601204F
:1001D0001BE060780A2823D105EBC70043681BB1F8
:1001E00001AA4946022010E01AE0601CABEB0801AE
:1001F00001AB2C22CDF80090FFF782FF014605EB02
:10020000C700436863B101AA032098470646401C13
:1002100006D006A001F042FD21B03046BDE8F08FC7
:1002200004A0F7E741540000700001080D0A4F4B8D
:100230000D0A00000D0A4552520D0A0000B591B09A
:10024000402168460CF053FFFCA2FEA168460EF068
:10025000EBF868460CF068FF81B2684600F0B3FF27
:10026000002011B000BD00F031FEFCA001F016FD31
:10027000642001F061FC00F0C1FD00F015FE00F00B
:1002800025FEF6A001F00AFD642001F055FC00F007
:10029000B5FDF2A001F002FD00F0B0FD2DE9F04146
:1002A000C2B017468846032822D14FF4807102A8B5
:1002B0000CF01DFF38680CF086FFC4B278680CF0B3
:1002C00082FFC5B2B8680CF07EFFC6B2F8680CF0C9
:1002D0007AFFC1B20DB1012D08D10EB1012E05D1A9
:1002E00009B1012902D1B8F1040F04D04FF0FF3059
:1002F00042B0BDE8F081DB482B4680F828501EB3A1
:100300005FF0050280F8792001291FD05FF000021C
:1003100080F87F20012B1BD0202C13D8C484CDE97A
:1003200000612246D0A102A80EF07EF802A80CF0CF
:10033000FBFE81B202A800F046FFC8A001F0AEFCAF
:100340000CF002FB0020D3E70922DBE70122DFE704
:10035000082CF7D8C484CDE900612246C2A102A8C6
:100360000EF062F802A80CF0DFFE81B202A800F0E5
:100370002AFFBAA001F092FC0BF0F9FDE2E730B5DC
:10038000C3B000252C464FF4807102A80CF0AFFEDC
:10039000B44890F87910092900D0012590F87F1011
:1003A000012900D10124CDE9005490F82830C28CF5
:1003B000B8A102A80EF038F802A80CF0B5FE81B280
:1003C00002A800F000FF43B0002030BD30B591B06E
:1003D0000C461546402168460CF089FE28680CF052
:1003E000F2FE10F0FF0001D0012801D1012C03D052
:1003F0004FF0FF3011B030BD9A4C012884F829002D
:1004000001D104F0EBF994F82920ADA168460EF073
:100410000BF868460CF088FE81B2684600F0D3FE07
:1004200000F054FD8DA001F039FC642001F084FB44
:1004300000F0E4FC00B591B0402168460CF057FE96
:1004400088489FA190F8292068460DF0EDFF684686
:100450000CF06AFE81B2684600F0B5FE002000E7AD
:100460002DE9F04FCDB08B4614464FF480710CA8A7
:100470000CF03DFE20680CF0A6FE00F0FF0AA0681C
:100480000CF0A1FE00F0FF09E0690CF09CFE206A70
:100490000CF099FEE0680EF063FF0DF05BFA054684
:1004A00020690EF05DFF0DF055FA064660690EF00A
:1004B00057FF0DF04FFA8046A0690EF051FF0DF086
:1004C00049FA074660680CF07EFEBBF1090F04D0C4
:1004D0004FF0FF304DB0BDE8F08F7E490A68A2F8BA
:1004E00017A010800A68CA4650800C68384624F865
:1004F000159FA9466560A660C4F80C804546276133
:100500000DF0E5F98346284600910DF0E0F9074625
:100510000D4630460DF0DBF90646884648460DF09C
:10052000D6F9024600200A900B460B9000990DF177
:10053000080CCDF800A08CE84C01CDE908B1CDE95C
:10054000067534F8153C628863490CA80DF06CFF01
:100550000CA80CF0E9FD81B20CA800F034FE0020DC
:10056000B8E72DE9F047CCB04FF480710CA80CF03F
:10057000BEFD58480468D4F82500641C0DF0A7F9A6
:1005800081468A46206A0DF0A2F907468846E0694E
:100590000DF09DF905460E46A0690DF098F90A4642
:1005A00000210A9102AB0B9183E8E507A08A009035
:1005B00034F8013CE28A49490CA80DF035FF0CA83B
:1005C0000CF0B2FD81B20CA800F0FDFD4CB0002093
:1005D000BDE8F0870020704700B591B00020109072
:1005E000402168460CF083FD10A806F040F910B1D8
:1005F0004FF0FF3035E610980DF069F902460B46D2
:1006000037A168460DF010FF68460CF08DFD81B2F1
:10061000684600F0D8FD002023E630B591B00C46C6
:100620001546402168460CF062FD28680CF0CBFDB1
:1006300010F0FF0001D0012864D159E056312E306E
:100640002E3000000D0A67657476657220736F6640
:1006500074776172653A25730D0A00000D0A4F4BDD
:100660000D0A0000880B00200D0A7365746366672D
:100670002049443A25642C20526F6C653A25642C3D
:100680002043483A25642C20526174653A25640D54
:100690000A0000000D0A6765746366672049443AE2
:1006A00025642C20526F6C653A25642C2043483A0F
:1006B00025642C20526174653A25640D0A000000FF
:1006C0000D0A776F726B6D6F64653A2025640D0AB1
:1006D00000000000181400206C0E0108E40D010851
:1006E0000D0A616E676C653A2025660D0A000000F0
:1006F000012C07D1F84C012806D000202070C0B290
:1007000001F018F9002075E600220121104601F0E1
:10071000F1F80120F2E7014606E00D2A03D00A2A8B
:1007200001D000F8012B491C0A78002AF5D10021DC
:100730000170704710B514460B461068FFF7EBFFC9
:10074000012B07D104F04AF8022303211320226869
:1007500004F05CF8002010BD00B591B0402168465F
:100760000CF0C5FCDD4800680DF0B1F802460B4600
:10077000DBA168460DF058FE68460CF0D5FC81B24E
:10078000684600F020FD00206BE530B5C1B04FF4A5
:10079000807168460CF0ABFC45F65A22D5A168463C
:1007A0000DF042FE054668460CF0BEFC6C46204447
:1007B000D2A10DF039FE68460CF0B6FC2044D2A15F
:1007C0000DF032FE68460CF0AFFC2044AFF29412FC
:1007D000D3A10DF029FE68460CF0A6FC2044D5A359
:1007E000D7A2DAA10DF020FE68460CF09DFC204453
:1007F000DBA2E6A10DF018FE68460CF095FC421B4A
:10080000E6A1A01C0DF010FE7B20605568460CF0A0
:100810008BFC2044D1A10DF007FE68460CF084FC4F
:1008200081B2684600F0CFFC41B0002030BDF0B589
:10083000A9B00AF09BFE07460AF090FE0546A021EB
:1008400001A80CF054FC0D221DB10A20152101FB5A
:100850000502A8A101A80DF0E7FD01AEA0213046D8
:10086000D0A20DF0C9FD044615E038680090C4F12F
:10087000A0013019CEA27B680DF0BEFD0444012D0D
:1008800006D9C4F1A0013019A4A20DF0B5FD0444AD
:100890006D1EADB20837002DE7D1C4F1A0013019AB
:1008A000C7A20DF0A9FD204481B201A800F08BFC85
:1008B0000AF072FE002029B0F0BDF0B5A9B0A02169
:1008C00068460CF014FC0AF095FD06460AF096FD09
:1008D000071E4FF00C020ADD3146684600F09BFA15
:1008E00068460CF021FC0921C01C00FB071281A105
:1008F00068460DF099FD6D46A0212846B1A20DF085
:100900007BFD0446308888B131462819064600F040
:1009100082FA30460CF008FC0444012F06DDC4F1D5
:10092000A00128197DA20DF067FD0444C4F1A001C7
:100930002819A3A20DF060FD204481B2684600F0A2
:1009400042FC0020B7E72DE9F047A8B08A461746D9
:10095000A02168460CF0CBFB1022002138680CF077
:1009600030FC044688461022002178680CF0F0FB29
:100970008146B8680CF027FC0646F8680CF023FCAA
:10098000054638690CF01FFC07461EB115B1BAF1D7
:10099000050F03D04FF0FF3028B019E61FFA89F297
:1009A000204641460AF088FD040037D0A681E58143
:1009B000278245F65A224FA168460DF035FD0646BE
:1009C00068460CF0B1FB6D46284481A10DF02CFD6A
:1009D00068460CF0A9FB2844214600F01CFA684642
:1009E0000CF0A2FB28447EA10DF01EFD68460CF021
:1009F0009BFB821B69A1A81C0DF016FD7B20A8554E
:100A000068460CF091FB284454A10DF00DFD68469A
:100A10000CF08AFB81B2684600F0D5FB0020BBE7F2
:100A2000F0B5A9B00E461446A02168460CF05FFB55
:100A30001022002120680CF0C4FB04460D46012E54
:100A400002D04FF0FF3036E74FF6FF710020091B50
:100A5000A84104D2204629460AF075FD02E0A0B262
:100A60000AF066FD45F65A2222A168460DF0DCFC2C
:100A7000074668460CF058FB6E46304422462B462B
:100A800058A10DF0D1FC68460CF04EFBC21B43A1EF
:100A9000B01C0DF0C9FC7B20F05568460CF044FBFF
:100AA00030442EA10DF0C0FC68460CF03DFB81B235
:100AB000684600F088FB0020FDE610B5012902D051
:100AC0004FF0FF3010BD10680CF07DFB4C490968F9
:100AD000A1F82F00002010BD04000020000000201D
:100AE0000D0A64697374616E63653A2025660D0AA8
:100AF000000000004A532530345800007B22496E24
:100B0000666F223A7B0D0A0022446576696365228E
:100B10003A2250444F41204E6F6465222C0D0A004A
:100B20002256657273696F6E223A222573222C0D4C
:100B30000A00000031343A33303A30390000000006
:100B40004D617920313520323032350022427569CD
:100B50006C64223A222573202573222C0D0A000092
:100B60004457333030302043302044657669636524
:100B7000204472697665722056657273696F6E20C3
:100B800030342E30302E30300000000022447269A4
:100B9000766572223A222573227D7D0025303458F5
:100BA000000000007B22444C697374223A5B2000F1
:100BB000222530386C582530386C5822000000004F
:100BC0005D7D00007B224B4C697374223A5B000010
:100BD0007B225461674164646564223A200000000E
:100BE0007D0000007B2254616744656C6574656418
:100BF000223A20222531366C6C78227D00000000DC
:100C00001814002010B5012902D04FF0FF3010BD9C
:100C100010680CF0D8FA89490968A1F83100002061
:100C200010BD10B5012902D04FF0FF3010BD106883
:100C30000CF0C9FA81490968A1F84100002010BDF3
:100C40002DE9F04FC7B08B4617464FF4807107A8C7
:100C50000CF04DFA38680CF0B6FA1FFA80FA786892
:100C60000CF0B1FA1FFA80F9B8680CF0ACFA86B251
:100C7000F8680CF0A8FA84B238690CF0A4FA1FFAEC
:100C800080F878690CF09FFA85B2B8690CF09BFA8D
:100C900081B2BBF1070F2DD1BAF1010F2AD8B9F1FA
:100CA000010F27D8012C25D8644808F0FF020068FE
:100CB00020F82B4F46800277C5820183B0F90630B9
:100CC000B0F904700096CDE90573CDE90351CDE983
:100CD0000142C37E827E5A4907A80DF0A5FB07A8F2
:100CE0000CF022FA81B207A800F06DFA002047B09C
:100CF000BDE8F08F4FF0FF30F9E710B5C8B04FF402
:100D0000807107A80CF0F3F94C480DF10C0C006849
:100D1000B0F84110B0F93140B0F92F30B0F84320AD
:100D20008CE81E0090F8473030F82B2F41888DE872
:100D30000E00C37E827E424907A80DF075FB07A80E
:100D40000CF0F2F981B207A800F03DFA48B000209B
:100D500010BD10B5012902D04FF0FF3010BD106852
:100D60000CF031FA3549096881F84700002010BDC0
:100D700010B5012902D04FF0FF3010BD10680CF003
:100D800022FA2E490968A1F84300002010BD30B5B1
:100D900091B00C461546402168460CF0A8F9286829
:100DA0000CF011FA10F0FF0001D0012801D1012C44
:100DB00002D04FF0FF30A6E4224981F82A006846AD
:100DC0000CF0B2F981B2684600F0FDF900209AE417
:100DD00000B591B0402168460CF089F919481AA174
:100DE00090F82A2068460DF01FFB68460CF09CF92D
:100DF00081B2684600F0E7F900200DE4BFF34F8FA1
:100E000017480168174A01F4E06111430160BFF31C
:100E10004F8F00BFFDE730B585B04A880DF1040C57
:100E20000D8ACC898B898CE83C004A6800928B68DB
:100E30000A880D490DF0F8FA05B030BD18140020ED
:100E4000F40E0108880B00200D0A7477725F70643D
:100E50006F615F6D6F64653A2025640D0A000000C4
:100E60000CED00E00400FA055C0F010810B561A06C
:100E700000F014FF69A26CA16EA000F00FFF71A139
:100E800072A000F00BFFBDE810405AA000F006BFB2
:100E900010B503460022104603E010CB521C20443C
:100EA000D2B28A42F9D310BD6F484AF6AA218222F3
:100EB0000160002141608160C16001614161C0F851
:100EC0009C10A0F67C3118300CF0F8B810B5674CC7
:100ED00002E0642000F030FE29226349204600F041
:100EE00030FB0028F5D010BD29225F495F4800F093
:100EF00059BB10B5FFF7F8FF5B4C2068A0F52A41FD
:100F0000AA3910D0FFF7D0FFFFF7E0FFBFF34F8FF4
:100F100057480168574A01F4E06111430160BFF38B
:100F20004F8F00BFFDE760680021401C60605248A1
:100F300006F090FC94F82900012817D14A49A42210
:100F400001F1A4000CF0BAF847490020A431474C45
:100F500081F8290002E0642000F0EEFD42492922D8
:100F6000A431204600F0EDFA0028F4D010BD10B5F1
:100F700000F086F84FF4FA7000F0DEFDFFF7B9FFDD
:100F8000BDE8104072E770B5374EF08CA0F57F4198
:100F9000FF3901D0022400E0012400F09AF800F0AB
:100FA000C8F83648D0F8F40A18B10021084600F015
:100FB0000AF9324D8C3D686884420FD06C6096F817
:100FC000290058B9012C02D0022C07D101E00A22D5
:100FD00000E002220221002000F08CFC287800288A
:100FE00004D0BDE87040012000F0A4BC70BD00201A
:100FF000704700002A2A2A2A2A2A2A2A2A2A2A2A42
:101000002A2A2A2A2A2A2A2A2A2A2A2A2A2A2A2A40
:101010002A2A2A2A2A2A2A2A2A0A00004D61792005
:10102000313520323032350031343A33303A3039CC
:101030000000000020202054696D653A20257320AF
:1010400025730A0056312E302E3000002020205605
:10105000657273696F6EA3BA41692D5468696E6BCE
:1010600065722D25730D0A00880B002000380108D9
:101070000CED00E00400FA050004300090000020B0
:1010800010B54021B9480CF032F8B8484021403042
:101090000CF02DF8B5480521803009F081F810BD1D
:1010A00030B503460C880020250411D4C4F30D0488
:1010B00013550A88521C92B20A803F2A01D9002295
:1010C0000A800A2B04D190B240F40040088001202D
:1010D00030BD2DE9F043A1B04FF0000980216846F2
:1010E0000CF005F88021684600F051FF05001CD087
:1010F00000246E462746DFF8788214E09B4A9C491C
:10110000305D4032891CFFF7CBFF58B19748294624
:101110004030FFF71DF89548A8F802704021403094
:101120000BF0E5FF641CAC42E8DB21B04846BDE8AB
:10113000F08300B58D4891B06946803009F0B8F869
:1011400000280AD08B4890F829100DF102000129DF
:101150009DF8011003D0FEF7FBFF11B000BD08F0B1
:10116000F1FFFAE72DE9F041834C0F460146D4F830
:10117000F40A0026C21904F5AF65B2F5AF6F08D2C4
:1011800028443A460BF09AFFD4F8F40A3844C4F8DD
:10119000F40AD4F8F00A012812D1D4F8F42A7AB16A
:1011A000294675480BF08AFFB4F8F40A002281B290
:1011B000714804F52F6400F049FD00202060606054
:1011C0003046BDE8F08170B50C460546FFF7CAFF12
:1011D00021462846BDE8704000F0DBBE00F0D9BED5
:1011E00000F0F1BD30B504460020034603E0CD1801
:1011F000655D68405B1C9342F9DB30BD70B54FF410
:101200000036A0B0304605F070FF40B35B48574A47
:1012100057490078FFF744FF08B344210EA80BF0AC
:1012200066FF534D00248DF838402A788DF8392018
:101230004E490DF13A000BF041FF362211A96846E4
:101240000BF03CFF0DF1380C48489CE80E00803054
:1012500008F0FAFF2C80402144480BF048FF20B0F2
:101260003046BDE8704005F04EBF10B54FF4005455
:10127000204605F022FF002808D03F490120C1F890
:10128000F00A2046BDE8104005F025BF10BD0FB4A0
:1012900030B50B9C9DF80C0020709DF80D506570CA
:1012A0009DF80E00A070BDF80F00E070000A2071DC
:1012B0009DF811006071BDF811002A46000AA07166
:1012C000DDF81100000CE071DDF81100000E207255
:1012D0009DF815006072BDF81500000AA072DDF8D7
:1012E0001500000CE072DDF81500000E2073BDF84B
:1012F00019006073000AA073DDF81B00E073DDF8CD
:101300001B00000A2074DDF81B00000C6074DDF87F
:101310001B00000EA074DDF81F00E074DDF81F0054
:10132000000A2075DDF81F00000C6075DDF81F0055
:10133000000EA075BDF82300E075000A2076BDF808
:1013400025006076000AA076BDF82700E076000A46
:10135000207702212046FFF745FF60779DF82A009D
:10136000A077281D30BC5DF814FB00003C14002061
:10137000D00C0020880B002090000020EC0C0020F6
:101380003E49087070473D480078704770B50500C9
:1013900015D03B4E002400BF05EB440040890CF003
:1013A000C7F9002233460CF008F902460B462146E5
:1013B00034A000F073FC641C082CEDDB70BDBDE8AC
:1013C000704036A000F06ABC70B5050014D02C4EF9
:1013D000002400BF35F814000CF0AAF900223346AF
:1013E0000CF0EBF802460B46214626A000F056FC16
:1013F000641C082CEEDB70BDBDE8704027A000F037
:101400004DBC10B5040015D0E0680CF060FA002265
:101410001B4B0CF0D2F802460B4626A000F03EFC17
:10142000A0690CF054FA0246BDE810400B4626A015
:1014300000F034BCBDE8104018A000F02FBC10B57F
:10144000040015D0E0680CF042FA00220C4B0CF0BE
:10145000B4F802460B4617A000F020FCA0690CF07F
:1014600036FA0246BDE810400B4617A000F016BC45
:10147000BDE8104009A000F011BC0000D40C002011
:1014800000005940646973745F636D5B257A755D14
:10149000203D2025332E3366206D0A00496E76618B
:1014A0006C696420726573756C7420706F696E74FA
:1014B00065720A00646973745F636D203D20253393
:1014C0002E3366206D0A0000616E676C65203D203A
:1014D00025332E3166200A0010B54FF4407005F018
:1014E000E5FC00F04EFB00F02BF8FFF7FDFC134C81
:1014F00094F82900FF2801D018B104E0002084F8F6
:10150000290000F0E0F900F08BFC00F00EFB94F8ED
:101510002900002811D100F02FFD94F8290000289F
:101520000BD100F04BF894F82900002805D100F009
:1015300085F8BDE8104005F0CCB810BD880B002040
:101540007047F8B50546042016460F4600248DF86E
:10155000000005F074FE352006F07FF8284605F0FF
:10156000A9FE8DF800009DF8000004280AD015E0BF
:1015700057F82410284605F03CFF8DF80000641C45
:10158000E4B22D1DB44203D29DF800000428EFD030
:1015900005F061FE9DF80000042801D00020F8BD90
:1015A0000120F8BD10B5002304E010C841F8234025
:1015B0005B1CDBB29342F8D310BD000010B50121D3
:1015C00086B0480506F05CFC0121082006F04FFCBF
:1015D000C020ADF8100003208DF812001C208DF8FB
:1015E000130004A98D4806F0A6F88D4C204606F09D
:1015F00081F90020ADF804004BF6FF70ADF806004D
:101600003020ADF808002015ADF80A000001ADF853
:101610000C00844800900121204606F0E5F9694657
:10162000204606F07AF903F052F8FF2003F0BAF8EA
:10163000002003F0B7F8002006B010BD10B501215E
:1016400086B0880506F01CFC0121082006F00FFC7E
:101650004FF44060ADF8100003208DF812001C20FC
:101660008DF8130004A96D4806F065F86E4C20460D
:1016700006F040F90020ADF804004BF6FF70ADF81D
:1016800006003020ADF808002015ADF80A00000172
:10169000ADF80C00634800900121204606F0A4F943
:1016A0006946204606F039F90020C5E710B588B034
:1016B000002003F077F85D480068807C40B108B0F6
:1016C00002230121BDE8104059A2302003F09EB84A
:1016D000594C5AA16846E28C0CF0A6FEB4F84100C1
:1016E0004FF00203012817D055A202215FF023001A
:1016F00003F08CF894F82800012811D0022352A29C
:101700000621282003F082F802236A4606214020A1
:1017100003F07CF808B010BD02214CA22720E7E7B7
:10172000012349A20621162003F070F801236A461E
:101730000621232003F06AF80123062145A23B205D
:10174000E6E700B589B0002003F02CF83A4844A140
:10175000C28C68460CF068FE00221146102003F08F
:10176000BDF801220021202003F0B8F80222002158
:10177000302003F0B3F803220021402003F0AEF83C
:10178000022338A20021512003F040F80822022150
:10179000202003F0A3F809220221302003F09EF854
:1017A000022329A21946402003F030F802236A469A
:1017B0001946582003F02AF809B000BD10B588B0CA
:1017C000044610F1FF4FA5D2202168460BF08FFC94
:1017D00026482749844202DD2648844208DC204608
:1017E0000BF088FD0CF073F80B46024622A10AE0CC
:1017F00023488442F3DC20460BF07CFD0CF067F8B4
:101800000B4602461FA168460CF00EFE01236A46F5
:1018100006214B2002F0FAFF7CE70000000C01409B
:1018200000540040801A06000058004018140020A0
:1018300050446F4100000000880B002041256400E7
:10184000785041205457520049443A0050412054A6
:101850005752000054303A2D2D2D2D206D000000E0
:101860002564000020545752000000000000104181
:101870000000C84200C0794425302E3366000000C5
:10188000003C1C4625302E32660000005B4A0528CD
:1018900018D2DFE800F0140F0F0F140002210BE044
:1018A00001290FD1022102E001290BD100211046AC
:1018B00005F0B1BF0029F7D1104605F0AABF0029F5
:1018C000EED1EBE7704708B50121042006F0CFFA0E
:1018D0000220ADF8000010208DF8030003208DF8E1
:1018E00002006946454805F026FF01210420FFF764
:1018F000CDFF08BD10B5424B02290DD0042804D0FD
:1019000003F82010FFF7C2FF10BD0022521C03F89D
:101910002010042AFADBF5E728B1012803D00228B9
:1019200001D00328F0D1022103F8201003EB80003E
:10193000428010BD70B5334E4FF4A023351D48B31F
:101940002F4CA41E2078042811D2002211461846DC
:1019500000F005FC00221146304600F000FC207823
:10196000012282400021284600F0F9FB03E000211B
:101970000846FFF78BFFC82000F0DEF82078052826
:1019800001D2401C04E001210020FFF77FFF00206E
:10199000207070BD0F220021184600F0E0FB0F22DE
:1019A0000021304600F0DBFB00221146284600F003
:1019B000D6FBBDE870400A22022100209AE770B5EC
:1019C0000F4D0646002400BF15F82400022811D14F
:1019D00005EB84004088B6FBF0F100FB116149B9CA
:1019E000B6FBF0F0C007E0B201D0002100E0012119
:1019F000FFF74CFF641C042CE6DB70BD00080140BF
:101A0000D80C00200800050008B517208DF800004C
:101A100001208DF8010000208DF802008DF80300F0
:101A2000684605F048FA08BD1CB50521012005F0FF
:101A30003AFF2020009000208DF8040008208DF847
:101A4000050001208DF80600684605F079FBFFF7D8
:101A5000DBFF1CBD70B5354D86B0284606F056FA42
:101A60000121080306F003FA01210D2006F0FFF919
:101A70000021ADF804104FF48270ADF80600ADF807
:101A80000C106815ADF80E00ADF80810ADF8101088
:101A90000720ADF80A10ADF81210ADF8140001A936
:101AA000284606F057FAA020ADF8000018208DF85F
:101AB00003001F4E03248DF802406946304605F0AE
:101AC0003AFE4020ADF8000048208DF8030069463A
:101AD000304605F030FE1021ADF800108DF80310EF
:101AE0008DF802406946304605F025FE0021284663
:101AF00006F0E5FA0121284606F0A9FA1021304641
:101B000005F087FE0121082006F0B1F92020ADF88C
:101B1000000028208DF803006946064805F00BFEFA
:101B2000FFF782FF06B0002070BD93E70030014050
:101B300000080140000C0140424908604FF0E020DD
:101B4000026942F00102026108680028FCD1704776
:101B50003C480168002902D00168491E01607047B5
:101B600008B51C208DF800000B208DF80100002026
:101B70008DF8020001208DF80300684605F09BF9FE
:101B800008BDFEB530484FF47A710068B0FBF1F043
:101B9000401EB0F1807F42D24FF0E02460616717B1
:101BA0000F21384600F03EF80025A5610726266182
:101BB0000521384600F036F80121084606F060F9A4
:101BC00040F2E730ADF8040041F61F40ADF80000E8
:101BD0004FF08044ADF80650ADF8025069462046FB
:101BE00006F066FB01221146204606F01FFE012189
:101BF000204606F006FEFFF7B3FF40F2712445F2DF
:101C0000555006F00BF8304606F00BF8204606F06B
:101C10000BF806F00CF8BDE8FE4006F00DB8FEE744
:101C200006F005B80907090E002804DB00F1E020E2
:101C300080F80014704700F00F0000F1E02080F8F9
:101C4000141D7047E80C0020B00F00202DE9F04172
:101C50000E460746012A0FD0C14C0021204605F050
:101C600014FABF484438866407650121204605F010
:101C70000CFA3046BDE8F0810025BA4C0BE0218813
:101C80002046795D07F0EFF84021204607F04CF937
:101C90000028F9D06D1CB542F1DBEAE70FB44FF430
:101CA000807110B503ABB048029A0CF0D1FB81B241
:101CB0000122AD48FFF7CAFF10BC5DF814FB2DE907
:101CC000F04301218BB0084606F0C8F8DFF8908297
:101CD000404605F043F9A34D00242D1D1020802619
:101CE0000095CDE9044647020290CDE908470694E5
:101CF0000794694640460A9405F09DF901220221A5
:101D0000404605F0CDF9DFF85C8201228021404693
:101D100007F075F8DFF8489209F11409484605F014
:101D20001DF992480095CDE9010403A9012081E83D
:101D3000510020200694CDE90740CDE90974694699
:101D4000484605F078F901220221484605F0A8F935
:101D50000121484605F099F901224021404607F04B
:101D60004EF80BB0BDE8F08308B50E208DF80000EA
:101D70000A208DF8010000208DF8020001208DF866
:101D80000300684605F097F808BD08B50F208DF8E8
:101D900000000A208DF8010000208DF802000120CB
:101DA0008DF80300684605F086F808BD10B5704C44
:101DB0000146204607F057F88021204607F0B4F886
:101DC0000028F9D010BD2DE9F0410E460746002449
:101DD000674D0BE0395D284607F045F8802128461D
:101DE00007F0A2F80028F9D0641CE4B2B442F1D3A1
:101DF00040E770B55E4C40F225552946204607F075
:101E00009DF800280BD0204607F031F8C0B2FFF74C
:101E1000CDFF29462046BDE8704007F0AEB870BD42
:101E20001FB5012144F2040006F021F84FF40070C0
:101E3000ADF8000003208DF8020018204D4C8DF8FD
:101E400003006946204605F076FC2015ADF8000039
:101E500004208DF803006946204605F06CFC4FF421
:101E6000E13000900020ADF80400ADF80600ADF8B8
:101E70000800ADF80C000C203A4CADF80A00694699
:101E8000204606F027FF012240F22551204606F0A9
:101E90009EFF0121204606F090FFFFF710FFFFF79D
:101EA00063FFFFF772FFBDE81F40AFF3008070B51E
:101EB00086B00121042005F0DAFF0121480405F075
:101EC000DFFF0424ADF8104018208DF81300294ED0
:101ED00003258DF8125004A9304605F02CFC08208B
:101EE000ADF810008DF813408DF8125004A930465B
:101EF00005F021FC00244FF4E1300090ADF80840DB
:101F00000C201B4DADF80440ADF80A00ADF80640BA
:101F1000ADF80C406946284606F0DCFE0121284653
:101F200006F04BFF012240F22551284606F04FFFF4
:101F30004021284606F0FFFF4FF4C06004F0B6FFD2
:101F400026208DF814008DF815408DF816400120DC
:101F50008DF8170005A804F0AEFF06B070BD0000B4
:101F6000440002400038014024160020ED0C0020FF
:101F7000004400400008014010B502F029FD02F0C5
:101F800056FD02F06BFDBDE8104003F097BE02F075
:101F900093BD02F0A3BD00004FF48020704710B144
:101FA0004FF0FF307047FF49FD4808600020704740
:101FB00038B50024009400F018F838BD08B589B28F
:101FC0006B460122FFF7F4FF9DF8000008BD30B515
:101FD000F34D00230446403503E0E05C50405B1CB9
:101FE0002A5C8B42F9DB104630BD2DE9F8430646EA
:101FF00017463144C1F304420898984601F07F0126
:102000001F2A27D87F2925D8B7F5445F22D24FF45D
:10201000004C48F2010360450AD048B1984207D00D
:10202000A0F50044023C03D0A0F50044033C11D1CC
:10203000520242EA810240EA0204240A00F0030547
:102040008DF8004015438DF801500FB151B10CE0EF
:10205000604501D0AFF30080812141EA46018DF84F
:10206000001012E060450ED068B144F040018DF8D8
:1020700000100224C11ACB4D98420DD007DC20B3CA
:10208000604508D108E08DF800400124F2E70129FD
:1020900002D0022900D0FEE72868007D70B100223E
:1020A00021466846FFF793FF024639464046FFF750
:1020B0008EFFBDA0FFF7F2FDBDE8F88343463A4628
:1020C000694620460AF01FF8F6E743463A46694655
:1020D00020460AF046F82868007D0228ECD1182E28
:1020E000EAD0002221466846FFF771FF02463946D2
:1020F0004046FFF76CFF044600211820FFF75EFF03
:102100008442D9D02868406A0028D5D08047D3E7D8
:1021100038B54FF400440094FFF767FF38BD09F06D
:1021200095BF38B5002489B26B460422FFF740FF03
:1021300003216846425C491E02EB0424FAD520467E
:1021400038BD08B589B26B460222FFF731FF9DF812
:1021500000009DF8011000EB012080B208BD38B5E9
:1021600000236C46E254120A5B1C042BFADB89B292
:1021700023460422FFF7CCFF38BD08B589B28DF89D
:102180000020120A8DF801206B460222FFF7C0FFE3
:1021900008BD07B589B202AB0122FFF7B9FF0EBD3A
:1021A0003EB5140A8DF804208DF80540140C8DF806
:1021B0000640120E8DF807208DF808301A0A8DF8A7
:1021C00009201A0C8DF80A201A0E8DF80B2048F2FF
:1021D0000302009289B201AB0822FFF706FF3EBD61
:1021E0001CB589B28DF80420120A8DF805208DF8EF
:1021F00006301A0A8DF8072048F20202009201AB5D
:102200000422FFF7F2FE1CBD1CB589B28DF8042034
:1022100048F201028DF80530009201AB0222FFF76F
:10222000E4FE1CBD2DE9F0415E4D0E4604001FD0BA
:102230004023FF2200211020FFF7E6FF022C01D1EE
:1022400028684662564E002207234036D1B2082045
:102250000F0602D583EA410100E04900401EC9B2E1
:1022600010F0FF00F4D1B154521CFF2AEEDD05E05E
:102270000023BF2219461020FFF7C6FF2868047507
:10228000BDE8F08170B54F4D04460122002128467B
:10229000FFF773FF22460021281FFFF76EFF02227F
:1022A00000212846FFF769FFBDE87040454800213E
:1022B000083036E70021084633E710B5FFF7FAFF8C
:1022C0004149884205D040491039884201D08817D9
:1022D00010BD002010BD2DE9F041324C064600250E
:1022E00020680221C5730182057545758572C57226
:1022F0008562C56205634563C5638563FFF7DDFFDE
:1023000008B1681EBCE70420FFF7BCFF804605202B
:10231000FFF7B8FF07460A20FFF7B4FFC0F30441F8
:102320002068B8F1000F017203D017B109B102F0B3
:102330005EF82020FFF7A6FF2449884203D12168D8
:102340000120487201E020684572F00604D406209E
:10235000FFF798FF21680860B00604D40720FFF754
:1023600091FF21684860700604D50820FFF78AFFB6
:1023700021688872300604D50920FFF783FF2168A1
:10238000C8722068C17A09B98521C172817A09B9F8
:10239000742181721F20FFF775FF2168487317E0D1
:1023A00024170020F00C00204E4F4E45205350497A
:1023B000207772697465746F737069776974686384
:1023C00072630A0008000B001203CADE400200100C
:1023D0001E20FFF757FF10F07F012068817301D1A5
:1023E0002E218173CAB20021FE48FFF7D2FE0020E1
:1023F00046E710B51E20FFF745FF00F07F0010BD37
:1024000040E770B5044680B240F400724FF43025C6
:1024100000212846FFF7B1FEA2B22846BDE8704071
:102420000021AAE62DE9F047DFF8BC830E460446FA
:1024300000214046FFF775FE82464FF470434FF08F
:10244000FF3200214046FFF7ABFEDFF8A0931822D1
:1024500000214846FFF791FE2520FFF7D2FF02201A
:10246000FFF7CFFF4FF4FE70FFF7CBFFF0B240F461
:102470008070FFF7C6FF4FF480763046FFF7C1FF4C
:102480000020FFF7BEFF0220FFF7BBFF4FF4E07014
:10249000FFF7B7FF46EA146060F30F05C4F3074087
:1024A00040F48077C4F3072040F48076E0B240F433
:1024B0008070FFF7A6FF3046FFF7A3FF3846FFF70F
:1024C000A0FF28B2FFF79DFF0020FFF79AFF3A20F8
:1024D000FFF797FF40F2FF10FFF793FF4FF485706F
:1024E000FFF78FFF0020FFF78CFF3A20FFF789FFEF
:1024F00040F20110FFF785FF4FF430240222002143
:102500002046FFF73AFE002211462046FFF735FE2F
:10251000022009F0ACFD3A20FFF773FF4FF4817001
:10252000FFF76FFF022200212046FFF726FE002260
:1025300011462046FFF721FE002211464846FFF7CC
:102540001CFE52464046BDE8F047002107E670B544
:102550000D460446FFF766FF2846FFF793FEA042AC
:1025600001D1002070BD4FF0FF3070BD2DE9F0416A
:10257000074615460E464FF0FF30002408E0381994
:1025800081B256F82400FFF7E2FF002802D1641C54
:10259000AC42F4DB74E62DE9F041954C012818D0EB
:1025A000271F25056FF48076022819D00123FF220A
:1025B00000213846FFF728FE2B46324600212046F0
:1025C000FFF7EEFD00237F2202212046BDE8F04107
:1025D0001AE6052001F032FF0123FF221946F4E735
:1025E0000323FF2200213846FFF70EFE2B4632461A
:1025F00000212046FFF7D4FD00237F220221204640
:10260000FFF702FEBDE8F041052001F017BF784852
:1026100000214FF480334FF0FF32001FC0E57548B2
:102620000068407B7047724B083308B1724A00E083
:10263000724A0221184692E570B504464FF4A0256F
:1026400000212846FFF76DFD6D4900EA0102E00711
:1026500001D042F48022A00701D542F41042600765
:1026600001D542F012022846BDE87040002176E50F
:102670005D4800212838A1E45E480068807A7047F0
:102680005C480068C07A70475A4800680068704724
:1026900058480068406870472DE9F041524F0D4698
:1026A00006464FF0FF343F1D4FF00823224600211D
:1026B0003846FFF775FD4FF060132246002138467B
:1026C000FFF76EFD4FF4E020052E0DD04D4B224656
:1026D0000021FFF765FD002D08D0BDE8F04142481C
:1026E0000021494A30383AE5484BF0E7C8E570B573
:1026F00004460D46012001F0A1FE00212846FFF707
:10270000CBFF284601F0C9FEC4F30B02002140486C
:10271000FFF733FD3E4C03230C3CFF2200212046F3
:10272000FFF772FD00212046FFF748FCC007F9D1F2
:1027300001F0ADFE002001F091FE052001F07EFECB
:10274000294800212838FFF739FC00F03F0070BD10
:1027500070B50446008990B1052500212D48FFF78A
:102760002DFCC00700D0092520892946FFF7BFFFAF
:102770006268BDE87040274800210838EFE41A4835
:10278000227800212838FFF704FDF1E710B5044650
:10279000026800212048FFF7E2FC1F480021001DCD
:1027A0006268FFF7DCFC1C4800210830A268FFF7D4
:1027B000D6FC1948E2680021BDE810400C30CEE498
:1027C00010B504460268144800211030FFF7C7FC1A
:1027D0001148002114306268FFF7C1FC0E48002147
:1027E00018301BE0140009004400070008000B002B
:1027F00008001100F00C00207488D2041000D200F0
:10280000C00FE0FF001C000200110101003C0002AB
:102810001C000800140001000C000200A268FFF771
:102820009EFCE268BDE810400021FD4897E4FC48AA
:102830000123FF2200212438E6E42DE9F047052892
:102840003FD0FB4EFA4D3F36F64ADFF8DC93DFF817
:10285000DC83F74F77352C460021F648FFF77FFCE5
:10286000F4484A460021001DFFF779FCF148424632
:1028700000210830FFF773FCEE483A4600210C3087
:10288000FFF76DFCEB48324600211030FFF767FC84
:10289000E8482A4600211430FFF761FCE54822464B
:1028A00000211830FFF75BFCE248E34A00211C38A6
:1028B000FFF755FCBDE8F047DE480021DF4A183835
:1028C0004DE4E14FE14DE14CC0377F35DC4ADFF8A4
:1028D0007493DFF87483DD4EBF34BDE770B5DC4D13
:1028E00005242868007A08B101F081FD1422012135
:1028F000D848FFF74EFC18220021D748FFF72FFCDD
:10290000D548E8220021001DFFF729FC28686FF454
:10291000C052007C00F0E001D048202902D060299C
:1029200008D102E04FF4806301E04FF440630021DE
:10293000FFF736FC0021CA48FFF703FCF82101EA43
:10294000D00109390F290ED8C00700D00924286802
:10295000407A0128204602D0BDE870406DE7BDE80E
:10296000704001F058BD70BD10B50446B8486FF412
:10297000304200210068447504F00B00030310206E
:10298000FFF70EFCE0438107B64805D0B64ABDE824
:1029900010400021FFF7E3BBB44AF8E72DE9F0410E
:1029A0009F4AB34F0024273A21463846FFF7D7FB0A
:1029B0001023FF2200213846FFF726FCDFF8B08203
:1029C000002508F11408661E142009F0E7FA00211A
:1029D0004046FFF7F3FA012804D06D1CEDB2032D39
:1029E000F2D33446002211463846FFF7D2FB0122CB
:1029F00000214046FFF7CDFB0123FF22022138468C
:102A0000FFF702FC9A4800210830FFF78AFB6FF0BD
:102A10006045A84200D13446954800211030FFF7A8
:102A200080FBA84200D13446204629E42DE9F0413C
:102A3000884D0446083D01280CD100212846FFF7A7
:102A400080FB064640F205134FF6FF720021284630
:102A5000FFF7C6FBFFF7A2FF0746012C05D10023B5
:102A6000324619462846FFF7BBFB384608E40246C3
:102A700001212820FFF78DBB2DE9F05F044690F877
:102A800000800079182802D8E078182801D90120A0
:102A900000E000208346E079012864D000208246CF
:102AA0006078012863D004285FD0052863D0072808
:102AB0005FD04FF48075DFF89891D9F80060308AC4
:102AC00020F0E0003082E0793073217B0120891C06
:102AD000884087B2F8000AF0FFFD66490AF0D8FB8B
:102AE0000AF053FE7082E07A7075607BE17A000430
:102AF00001F00B0140EA0133207A202101EA401065
:102B0000034343EA0A035C4A00211020FFF748FB15
:102B10005FEA0B00594EDFF844B16FF4C05A2CD075
:102B2000D9F800004FF440635246018A41F0600139
:102B3000018200215846FFF733FB40F206320021A4
:102B4000B01FFFF70CFB00221146301FFFF707FBF9
:102B50004B4A00213046FFF702FB7D220021301D49
:102B6000FFF717FB38E0102099E72025A3E7402561
:102B7000A1E748259FE780259DE7E07AA8B1607B23
:102B8000404901281CD0D8B1207B042231F8100024
:102B9000102101F094FC00F07F0305EBC7054FF610
:102BA000807202213046FFF71BFBFF2D0DDDD9F8A7
:102BB00000004FF48063018A41F02001018206E0A9
:102BC000207B032231F81000E2E74FF4A053524675
:102BD00000215846FFF7E4FA4FF4C025A378FC2201
:102BE00000212846FFF710FB7F1EFAB200214FF4A8
:102BF0000030FFF7CEFA607807284DD05FF0000074
:102C0000FFF735FFE07AC0438107164846D0164AE1
:102C10000021FFF7A4FA124E0021304634E00000F4
:102C200028000200FEA8020036AC0200FEA5020049
:102C30003EAF0200380003004002001089A46D1B63
:102C4000FDC001003EC40100BEC6010036CF010038
:102C5000F00C0020500007000C001F0008000B00C3
:102C6000140001000C0006004C585FAFCC355FAF7C
:102C70000C0004006666663FCF4FFCFF12000E009A
:102C80000A5A0C0060010108FFF74BFA6FF30C00C1
:102C9000B8F1090F04D005E00820B1E7F84AB7E71A
:102CA00040F0010021794FF4F85202EA012101437A
:102CB000E0780622C00641EA1060617902EA41022A
:102CC000024300213046FFF74AFAA079617880027A
:102CD00040EA01336FF4744200212420FFF760FAC8
:102CE000B4F8090010B98120A4F80900B4F809204B
:102CF00002212846FFF741FAE2484FF41025B8F1C7
:102D0000090F42D0E04A0021FFF729FA41F63C7250
:102D100000212846FFF731FADA4814220121343025
:102D2000FFF737FAD7480E220221001FFFF731FACA
:102D300081220021D548FFF72CFA022200214420ED
:102D4000FFF727FA0120FFF726FC0025012009F0F4
:102D500024F900214420FFF731F9800726D5207996
:102D6000CB4C09380F282ED8D9F80000407A01281A
:102D700024D04046FFF761FD4FF4C84348F2FF12EC
:102D800000212046FFF72CFA23E0C24A0021FFF77A
:102D9000E6F940F63C7200212846FFF7EEF9B94803
:102DA000BD4A00210C38FFF7DAF9B5E76D1CEDB22A
:102DB000062DCBD34FF0FF30BDE8F09F4FFA88F0DF
:102DC00001F029FBD8E70023FE2219462046FFF731
:102DD0001BFABDE8F05F012028E6024600214FF40F
:102DE0006020FFF7CAB902460021AC48FFF7C5B919
:102DF00070B50546501914460E46B0F5806F1BD2CB
:102E00007F2C05D80B462A4621464FF4A0100FE030
:102E100014220021A248FFF7A2F9A148224600216E
:102E2000001DFFF79CF933462A4600214FF4E810B5
:102E3000FFF76EF9002070BD4FF0FF3070BD10B588
:102E4000984C7F290AD840EA014040EAC223224632
:102E50000021BDE810402420FFF7A2B94FF4000381
:102E600003EB0141014341EAC22322460021242011
:102E7000FFF796F9BDE8104000214FF40020FFF75E
:102E80009DB830B414460A462146034630BC4FF480
:102E9000B010FFF78DB870B50646834814460D464E
:102EA0000068C07B03280BD04FF490106119B1F576
:102EB000806F1CD27F2C06D833462A46214612E06A
:102EC0004FF49810F2E7020C00217548FFF747F91C
:102ED000734822460021001DFFF741F933462A4678
:102EE00000214FF4E810BDE87040FFF761B870BDF5
:102EF0002DE9F0416D4E14460D46074648F2400359
:102F00004FF6FF7200213046FFF76AF9601943F26D
:102F10000101884222D87F2C05D83B462A4621460B
:102F20004FF4A8100FE0152200215D48FFF717F9B4
:102F30005B4822460021001DFFF711F93B462A4657
:102F400000214FF4E810FFF733F83046BDE8F041B8
:102F5000002347F6BF721946FFF742B9AFF300806E
:102F6000514810B50068C07B012808D0032802D062
:102F700000214F4805E00C214FF4F01001E0002142
:102F80004C48FFF7DEF8C0F30C00C10401D540F453
:102F9000604000B210BD38B500246B4603222146C4
:102FA0004548FFF705F8022069460A5C401E02EB1F
:102FB0000424FAD5E00201D540480443204638BD38
:102FC00010B5044600213E48FFF7BBF8C0F30B01E3
:102FD000080501D541F4704108B2334920800968E1
:102FE000B1F91210401A10BD70B500250446012930
:102FF0000DD030484FF00C1220302B490968C97BA6
:1030000001290ED0032907D0022110460AE02948E1
:10301000274A28300C3AF0E72A4901444FF4F010CF
:1030200000E00221FFF78DF8C00920800004000CA9
:1030300001D04FF0FF35284670BDF0B51A4E04465A
:10304000BBB030684FF4C0176D46C17B01297DD0FD
:10305000807D032910D0C1074FF4402005F16C0793
:103060002B4674D06C220021FEF7A2FF6C223B4657
:1030700000214FF4502025E101074FF4F01717E12C
:10308000CC355FAF1C0007003411071C0800090095
:10309000180003003400011C33A8B5080400010027
:1030A00004001F0000F400FCF00C002004001100DC
:1030B00020000C000C001800290006000000F0FFA2
:1030C000080002000200E8FF2B46E82202E0382256
:1030D00000E0202200213846FEF76AFF0020291870
:1030E0002218097C401C11770628F8DBBDF80C007B
:1030F000C0F30C00A084BDF81600C0F30D0060847E
:10310000810402D540F440406084BDF81C00C0F347
:103110000B00A4F842003268907D80077DD4002027
:10312000291811F8203F235423180E7A1E72097CA7
:10313000401C99740528F3DB9DF822006071BDF8EE
:103140002100E0809DF82A00E08101E0AEE0B7E0D8
:10315000BDF8290020829DF832002083BDF831009F
:103160006083907D400758D49DF83800DDF8391011
:1031700040EA012020F0604044F8280F9DF83C0010
:10318000DDF83D1040EA012020F0004060609DF82D
:103190004000BDF8411040EA0120C0F31000A060DB
:1031A0009DF84400BDF8451040EA0120C0F3150029
:1031B000E0609DF84800BDF8491040EA0120C0F3E6
:1031C000150020619DF84C00BDF84D1040EA01202B
:1031D000C0F315006061BDF85C0020839DF86C00B1
:1031E000DDF86D1040EA012020F04040E061BDF8BC
:1031F000700020849DF87400BDF8751040EA01202D
:10320000C0F3150060629DF87800BDF8791040EABF
:103210000120C0F31500A06200E045E09DF87C00AD
:10322000BDF87D1040EA0120C0F31500E062BDF852
:103230008C00C0F30E002086BDF89C00C0F30B008C
:1032400060869DF8B400DDF8B51040EA012020F05A
:1032500040406063BDF8B80020879DF8BC00BDF811
:10326000BD1040EA0120C0F31500E0639DF8C000E6
:10327000BDF8C11040EA0120C0F3150020649DF89C
:10328000C400BDF8C51040EA0120C0F31500606419
:10329000BDF8D400C0F30E00A4F84800BDF8E40067
:1032A000C0F30B00A4F84A003BB0F0BD807D0107DD
:1032B0000029FFF609AF40072B467FF50AAF06E766
:1032C00028220021FEF774FE00202218295C2154D8
:1032D0002918401C0B7A13720B7C9374097E1177AA
:1032E0000528F2DB9DF81D0084F821009DF80700F9
:1032F0006071BDF80500E0809DF80F009DF80E108C
:103300000843C009E081BDF80D0020829DF8170038
:103310009DF80E100843C0092083BDF81500608396
:10332000BDF81E00C0F30D006084810402D540F496
:1033300040406084BDF82000C0F30C00A0849DF8DC
:103340002400DDF8251040EA012020F06040A06252
:103350003068807DC007A7D09DF82800DDF82910CF
:1033600040EA012020F0004044F82C0F9DF82C008A
:10337000BDF82D1040EA0120C0F3100060609DF8F8
:103380003000BDF8311040EA0120C0F31500A06004
:103390009DF83400BDF8351040EA0120C0F3150057
:1033A000E0609DF83800BDF8391040EA0120C0F314
:1033B00015002061BDF84800A082BDF85800C0F398
:1033C0000B00E0829DF85C00DDF85D1040EA012012
:1033D00020F04040A061BDF86000A0839DF864002B
:1033E000BDF8651040EA0120C0F3150020629DF889
:1033F0006800BDF8691040EA0120C0F31500606262
:103400009DF86C00BDF86D1040EA0120C0F3150076
:10341000A062BDF87C00C0F30E00A085BDF88C0052
:10342000C0F30B00E0859DF8A400DDF8A51040EA8C
:10343000012020F040402063BDF8A800A0869DF840
:10344000AC00BDF8AD1040EA0120C0F31500A06348
:103450009DF8B000BDF8B11040EA0120C0F315009E
:10346000E0639DF8B400BDF8B51040EA0120C0F358
:1034700015002064BDF8C400C0F30E00A4F8440099
:10348000BDF8D400C0F30B00A4F846000CE70346D7
:10349000052200217420FEF78BBD01217420FEF768
:1034A00040BE00217420FEF73CBEFF4810B5006806
:1034B000C07B012808D0032802D00221FB4805E088
:1034C00016214FF4F01001E00221F948FEF739FE11
:1034D000C0F30D00810402D540F4404000B20AF070
:1034E000F2F86FF00A0109F043FFF24909F0D0FE4B
:1034F0000AF0EDF9F04AF14B0AF05FF80AF02AFA07
:103500000AF043F900B210BD10B504460346E7487F
:1035100006220021001FFEF74BFD607900F001003C
:10352000607110BDE0490968C97B01290BD00329EE
:1035300003464FF0050202D00021642008E0042178
:103540004FF4F01004E00346D9480522002110385A
:10355000FEF72EBD00210170431C04227020FEF7EF
:1035600027BDD1490968C97B01290CD0032903462D
:103570004FF0050203D000214FF4402008E0202145
:103580004FF4F01004E00346C948052200210C3036
:10359000FEF70EBDC4490968C97B01290CD0032977
:1035A00003464FF0050203D0C0480021143808E05C
:1035B00028214FF4F01004E00346BD480522002105
:1035C0001430FEF7F5BC01216420FEF7AABD0021EE
:1035D0006420FEF7A6BD00211C20FEF7A2BD034615
:1035E000042200211C20FEF7E3BC10B50C46022883
:1035F0000CD00023FE2219461020FEF705FE002203
:103600000021BDE810401420FEF7B7BD0123FF22C2
:1036100000211020FEF7F8FD2246F1E702460221C4
:103620000C20FEF7AABD024600210C20FEF7A5BD26
:103630000346082200210420FEF76ABD0346082243
:1036400000210420FEF7B4BC10B5024600219C48BE
:10365000FEF793FD9A4C8822083C00212046FEF795
:1036600098FD002211462046FEF793FD0021201D03
:10367000BDE81040FEF7A2BC70B500240D46FF283F
:1036800000D92024024600218D48FEF776FD8C48A3
:103690002A460021001DFEF77CFD44F09002884C74
:1036A0000021083C2046FEF774FD2046BDE870402E
:1036B00000221146FEF76DBD2DE9F04115460E467C
:1036C0000746002406E0381980B2FEF7DBFD46F815
:1036D0002400641CAC42F6DBBDE8F08110B5022882
:1036E00005D10023FE2201217648FEF78DFD744CA2
:1036F0000022083C11462046FEF74BFD20460222E0
:10370000BDE810400021FEF744BD10B50446C1B22B
:103710004FF48170FFF7B0FF210ABDE8104040F27E
:103720000310A9E770B5684D1023FF220021284639
:10373000FEF76AFD4FF4827600213046FFF79CFFCA
:1037400004213046FFF798FF022008F090FC4FF468
:103750008770FFF779FF044640F20F10FFF774FF00
:1037600044EA002400213046FFF786FF0023EF22C1
:1037700019462846FEF748FD204670BD10B50C4698
:10378000494909680A8A02430A8200214FF420202D
:10379000FEF7F3FC22464A480021BDE810400830FD
:1037A000FEF7F7BC10B5002211464FF42020FEF7BB
:1037B000E4FC4348002211460830FEF7EAFC404C86
:1037C0000022083C11462046FEF7E3FC2046022278
:1037D000BDE810400021FEF7DCBC30B4394C20B10C
:1037E0004FF400634FF6FF7202E000234FF2FF72C6
:1037F000204630BC0021FEF7F3BC10B50446C107DB
:103800004FF4602002D00023EF2201E01023FF22BA
:103810000221FEF7F9FC620800212C48FEF7B9FCF2
:1038200021480068847510BD10B5024627480C4633
:1038300003212038FEF7ADFC4CB10021BDE810405B
:103840004FF481234FF0FF321020FEF7A9BC002374
:10385000BDE810404FF2FF7219461020FEF7C0BCC1
:10386000002310B51A4619461320FEF751FC0E48E6
:103870000068C17B032902D00321C17310BD01215F
:10388000FBE770B50E46084900256C1E0A6850B16A
:1038900008250020D0737EB324F4806400212B46D9
:1038A0002246102014E017E0F00C00201C000C0051
:1038B0001400180000003443462C4454FB210940F6
:1038C0000C000A0008001100480007002800010051
:1038D000BDE87040FEF764BC0120D0736FF00804AF
:1038E00018220021F848FEF73AFCF748E8220021A8
:1038F000001DFEF734FCCEE7FFE745F48065CDE719
:1039000070B5F24D044600212846FEF70AFC6FF31D
:103910001300C4F3130202432846BDE8704000219F
:10392000FEF71DBC70B5EA4CDDE904562468283466
:1039300084E86F0070BD10B500214420FEF73EFB07
:1039400000F0010010BD10B502214420FEF7F9FB84
:103950000004C0F3006010BD2DE9F04700214FF4D2
:10396000F810FEF72BFB064600214420FEF7D9FB9A
:10397000D74C054620688561407DC043800703D150
:10398000A80401D546F00806300628D500214820B5
:10399000FEF7D7FB014620688183027D12B1007ECD
:1039A000400702D411F4606F0FD00422002144209C
:1039B000FEF7D5FB4FF4606200214820FEF7DDFBE7
:1039C0002068816B09B1183088472068808BC0055A
:1039D00005D54FF4807200214820FEF7CEFBF0079A
:1039E00009D0F82200214420FEF7D3FB2068816A29
:1039F00009B11830884770060AD52068C16B09B133
:103A0000183088474FF4C07202214420FEF7B5FBFE
:103A100030077DD520680027DFF8B09280F820704D
:103A2000C07BB84609F11C09A0B100214846FEF749
:103A3000C5FA2168C97B032900D10009C10701D05B
:103A400045F48045810701D545F40055400701D56F
:103A500045F4806520686903856108D590F82010D9
:103A60004FF4802741F0080180F8201007E0690535
:103A700005D590F8201041F0040180F82010E900ED
:103A800007D590F8201047F0805741F0100180F8DA
:103A90002010A90403D5417DC943890709D06904D1
:103AA00031D5C07B012817D003280CD000214C2031
:103AB0001AE010F8201F47F4004741F0020101709E
:103AC00020F8028C1FE0F02200214846FEF761FB3F
:103AD00000214FF4F01007E00F2200214846FEF7C6
:103AE00058FB00214FF4C010FEF72BFB21680A7B26
:103AF000B2B3C0F30902CA83000404D511F8200F41
:103B000040F001000870002147F4DE42442000E04C
:103B10000BE0FEF724FB2068C16A09B11830884722
:103B20002068C07B08B1FFF79BFEF00609D5694A03
:103B300000214420FEF713FB2068416B09B11830C7
:103B40008847B00610D5222202214420FEF721FB2F
:103B50002068016B002907D0BDE8F04718300847FE
:103B6000FFE700F07F02C6E7BDE8F08770B50446C6
:103B7000C107594E6FF47C624FF4A0201FD04FF460
:103B800010730021FEF70CFB53484FF404034FF071
:103B9000FF3200211238FEF703FB3513A00700D5D2
:103BA0004E4D00212A463046FEF7D9FAA00713D51C
:103BB000AAB23046BDE870400021FEF7D0BA00231B
:103BC0001946FEF7EDFA3046BDE8704000234FF687
:103BD000FF621946FEF704BB70BD0246002130208B
:103BE000FEF7BDBA024600212C20FEF7B8BA70B528
:103BF000002410F0050F03D1010701D4C10648D5F8
:103C0000C10709D04FF0000380071A46194601D5B5
:103C10000D2024E0032022E0010709D54FF0000326
:103C200080071A46194601D50F2018E0072016E034
:103C3000C1064FEA807009D54FF0000300281A46EC
:103C4000194601DA0E200AE0052008E04FF00003D3
:103C500000281A46194601DA102000E00920FEF774
:103C600057FA03214420FEF7A9F900074FF0FF356A
:103C700007D41A480021E038FEF753FAB0F5502F68
:103C800020D100231A4619461846FEF741FA2C4661
:103C900018E081064FEA807009D54FF00003002834
:103CA0001A46194601DA11200AE00B2008E04FF00D
:103CB000000300281A46194601DA0C2000E0012012
:103CC000FEF726FA204670BD0C001F000800010018
:103CD000F00C0020009005241600110010010F00C8
:103CE00010B500F00DFC002304461A46194618468C
:103CF000FEF70EFA2046BDE8104000F012BCFE4B65
:103D000020B141EA022020F0F00200E00022002170
:103D10001846FEF732BA70B504000CD024F0020049
:103D20004FF0FF3501280DD0042810D008282AD0E4
:103D3000102826D12CE000231A4619460220FEF74F
:103D4000E7F92AE000231A461946042003E000237D
:103D50001A4619460A20FEF7DBF903214420FEF734
:103D60002DF9000719D500231A4619461846FEF703
:103D7000CFF9A00705D400231A4619460220FEF702
:103D8000C7F928469FE700231A4619460820E2E7AC
:103D900000231A4619460620DDE7002093E710B5F8
:103DA00048B1024600213420FEF7D9F94FF40073E0
:103DB0004FF6FF7202E000234FF6FF520021BDE8EC
:103DC00010401020FEF70CBA02460021CB48FEF747
:103DD000D4B92DE9F04116460C46054600F090FB9B
:103DE0000746022E12D0012E1BD00023EA431946AB
:103DF0003C20FEF7D5F90023E24300214020FEF7E6
:103E0000CFF93846BDE8F04100F08BBB2A460021CF
:103E10003C20FEF7A4F9224600214020FEF79FF93E
:103E2000EFE72B464FF0FF352A4600213C20FEF7F6
:103E3000B7F923462A46E0E770B504464FF47025EB
:103E4000022200212846FEF7A4F9002C06D02846BD
:103E5000BDE8704001220021FEF79BB933E710B5A1
:103E600004460021A648FEF75CF9C0F30B0121804F
:103E7000C0F30B406080A2480021001DFEF751F9FD
:103E8000C0F30B01A180C0F30B40E0809C480021EF
:103E90000830FEF746F92072000C60729848002145
:103EA0000C30FEF73EF9C0F30B41A181C0F30B00CB
:103EB0006081934800211030FEF733F9C0F30B41C5
:103EC0002182A0738E4800211430FEF72AF9A074D5
:103ED000000CE0748A4800211830FEF722F9C0F384
:103EE0000B00A08210BD10B5FFF75CFC012008F0AC
:103EF000BEF881480323FF2200211638FEF784F91B
:103F0000002211464FF48810FEF743F9012008F013
:103F1000AEF87C4801210068C1730021018210BD08
:103F200000F03F0277480021006882737648FEF770
:103F300030B974480068807B704770B504460D4600
:103F40000020FEF770FB0F2D00DD0F25601E0328FB
:103F500000D304241022E24000216C48FEF7FFF851
:103F6000A000001F05FA00F2BDE87040002168487B
:103F7000FEF7F5B810B5044661481023FF22002172
:103F80002030FEF741F9042C00D2042422460021FF
:103F9000BDE810402C20FEF7E2B810B50446012120
:103FA000FEF77AFB204600F078FA012000F046FA8E
:103FB0000F21BDE810400120BFE770B50D46044653
:103FC00001212846FEF768FB284600F066FA01202A
:103FD00000F034FA2046BDE87040CBE72DE9F04709
:103FE0004A4C002120342046FDF7E8FF8146022399
:103FF000FF2200212046FEF707F9444E04220C362A
:1040000000213046FEF7C5F84FF4002801220021B8
:104010004046FEF7BEF808F1040500212846FDF7EA
:10402000CDFFC007F9D000214FF00810FEF789F846
:10403000C5B2070A002211464046FEF7AAF8002240
:1040400011463046FEF7A5F84A4600212046FEF705
:10405000A0F845EA072087E52A4910B50968C97A1A
:10406000401A09F030FB2B4909F012F9BDE8104065
:10407000294909F0B5B8234910B50968897A401A69
:1040800009F021FB254909F003F9042109F070F931
:10409000234909F02FF9BDE81040224909F0A0B8E2
:1040A00001214FF00810FDF789BF00214FF00810E3
:1040B000FDF784BF70B504460D46012000F0BEF93F
:1040C00000212846FEF7E8FA284600F0E6F90F48F6
:1040D00004F03F0200210C38FEF75BF80C4C012382
:1040E000083CFF2200212046FEF78EF800212046E2
:1040F000FDF764FFC00717E01A0011000400060076
:1041000004000F00F00C0020140009002800070034
:10411000180008006666863F0000A041CDCCCC3E6A
:1041200000007F4300004040E0D10021EC48FEF752
:1041300008F8C0F30B0400F0AAF9002000F08EF993
:10414000052000F07BF92046BDE5C179827941EA7E
:104150004201427941EAC201027941EA8211C27800
:1041600041EAC211827841EA02214278007841EAAC
:10417000C22141EA003082B20021DA48FDF7FDBFDA
:10418000002118B1FF2101EB5000C1B20846704771
:1041900010B504460268D34800212430FDF7DFFF44
:1041A000D048002128306268FDF7D9FFCD480021B2
:1041B0002C30A268FDF7D3FFCA48E2680021BDE8B1
:1041C00010403030FDF7CBBF2DE9FF470446C07CDF
:1041D000FF284AD0C34E361DE9B32068E1896B46FB
:1041E000827A8DF80020427A8DF80120027A8DF8CB
:1041F0000220C2798DF8032082798DF8042042795B
:104200008DF8052002798DF80620C2788DF80720F8
:1042100082788DF8082042788DF8092002788DF890
:104220000A208DF80C100022090A8DF80B208DF859
:104230000D10017B8DF80E10C07A8DF80F00102242
:1042400000213046FDF764FF227BE089A17C131832
:104250004FF4B01600E00BE04FF4A01859B101295B
:1042600012D06FF0010004B07EE46FF00200FAE7B4
:104270000C222368E4E7207C18B14FF480604546A7
:1042800008E07F20354605E0607C10B140F2FF3049
:1042900000E07F20E77CC01B801E984202D24FF0D6
:1042A000FF30E0E751B9002128466368FDF730FF91
:1042B000E289217B2846A368FDF72AFF207C8A4DEE
:1042C000012801D0022804D12868C07B032808D027
:1042D0000120617C012906D0022904D004290AD0DA
:1042E0000FE00220F5E72968C97B032901D00121ED
:1042F00007E0022105E0E289102A02D96FF00300ED
:10430000B1E740EA4132774800211430FDF727FF3A
:10431000207B6FF4FC0100F07F02E08901EAC0100D
:104320000243704800211830FDF719FF6D48012243
:1043300000211C30FDF72DFFDFF8A89109F12009BD
:1043400000214846FDF73AFE074610F0050FF7D06A
:104350003A4600214846FDF71CFF07F03F0727F0CB
:104360003000012825D1A07C012822D1607C0128C1
:1043700004D0022802D003280AD00AE02868C07BB3
:10438000032802D04FF4901603E04FF4981600E093
:10439000464663682BB1227B1AB100213046FDF7F7
:1043A00007FEA3682BB1E2891AB1217B3046FDF7E5
:1043B000FFFD384657E74B4B183B59B1012904D054
:1043C0001B1D022906D0032907D1024602211846E7
:1043D000FDF7D3BE02460021F9E77047062101EA46
:1043E0004003CA433F4800211C38FDF7D9BE10B531
:1043F0004FF4C0734FF6FF7200213C48FDF7F0FE0A
:1044000039484FF6E07200210068037ABDE8104099
:104410003748FDF7E5BE30B4344C6FF40052052840
:1044200008D0092808D14FF40153204630BC0021A0
:10443000FDF7B6BE4023F8E730BC70472C4B1B3B62
:10444000012807D0052808D14FF400720021184632
:10445000FDF793BE41F62202F8E7704710B5044617
:10446000002211462348FDF77AFE002211464FF440
:10447000E020FDF774FE002C08D01E480021BDE8A6
:1044800010404FF0E0523438FDF769BE10BD0022F5
:10449000184811464438FDF762BE30B4154C4FF051
:1044A000FF32443C052807D00928C5D1124B2046CD
:1044B00030BC0021FDF774BE104BF8E7BCE7484361
:1044C000032A02D1B5214843C009C0F30A01C00A3A
:1044D00001F58061B1F5006F00D3401C704700000A
:1044E0001400080030000100F00C002008000B0050
:1044F0001F00110048000700001C0002003C0002E1
:1045000010B5172007F0B4FD002809D04FF0E022C5
:104510004FF40001C2F88011BFF34F8FBFF36F8FCC
:1045200010BD002805D04FF0E0214FF40000C1F885
:104530000001704710B5012186B0480503F0A0FCCA
:104540000121082003F093FCC020ADF810000320E7
:104550008DF812001C208DF8130004A9F84803F010
:10456000EAF8F84C204603F0C5F90020ADF8040045
:104570004BF6FF70ADF806003020ADF808002015AE
:10458000ADF80A000001ADF80C00EF4800900121E1
:10459000204603F029FA6946204603F0BEF906B02A
:1045A00010BD2DE9F05FEA4C8B468246002721784A
:1045B000E64DE4483E46002971D04FF4003980466C
:1045C0004946404603F0F6FA50B17F1CAF4204DD85
:1045D000E0A0FDF763FB267002E020780028EFD111
:1045E00000270121404603F01DFADFF8789309E027
:1045F0007F1CAF4204DDDCA0FDF750FB267007E016
:10460000207828B14946404603F0C1FA0028EFD08F
:1046100000273A467821404603F04BFADFF85893DA
:1046200009E07F1CAF4204DDD4A0FDF737FB267004
:1046300007E0207828B14946404603F0A8FA002850
:10464000EFD051460027C246404603F02DFADFF86E
:104650002883A14608F102080BE07F1CAF4205DD6C
:10466000CAA0FDF71BFB89F8006008E099F800007C
:1046700028B14146504603F08AFA0028EDD00024C4
:1046800059465746504603F00FFA0CE0641CAC4202
:1046900006DDC2A0FDF702FB89F8006009E00EE02C
:1046A00099F8000028B14146384603F070FA002816
:1046B000ECD03846BDE8F05F012103F0BDB9BDE89C
:1046C000F09F014600206CE70146402069E710B5E5
:1046D0006420FDF731FAAE20FFF7F3FF2020FFF74B
:1046E000F0FF1020FFF7EDFFB020FFF7EAFFC82032
:1046F000FFF7E7FF0020FFF7E4FF1020FFF7E1FFDF
:104700004020FFF7DEFF8120FFF7DBFFFF20FFF7F0
:10471000D8FFA120FFF7D5FFA620FFF7D2FFA820E2
:10472000FFF7CFFF3F20FFF7CCFFA420FFF7C9FF23
:10473000D320FFF7C6FF0020FFF7C3FFD520FFF708
:10474000C0FFF020FFF7BDFFD920FFF7BAFF2220FE
:10475000FFF7B7FFDA20FFF7B4FF1220FFF7B1FF32
:10476000DB20FFF7AEFF2020FFF7ABFF8D20FFF728
:10477000A8FF1420FFF7A5FFBDE81040AF20A0E779
:1047800010B50446B031C8B2FFF79BFF102040EAD5
:104790001410FFF796FF04F00F00BDE8104040F042
:1047A00001008EE770B506465FF0000404F1B0002A
:1047B000C0B2FFF786FF0020FFF783FF1020FFF74E
:1047C00080FF00253046FFF77FFF6D1CEDB2802D86
:1047D000F8D3641CE4B2082CE8D370BD0020E1E7F4
:1047E00010B58D20FFF76DFF1420FFF76AFFBDE8BD
:1047F0001040AF2065E710B58D20FFF762FF102055
:10480000FFF75FFFBDE81040AE205AE72DE9F04703
:10481000002591468A460446012B22D0DFF88C8180
:10482000022B24D155E02038C7B27E2C04D90AF1DE
:104830000100002400F0FF0A51462046FFF7A0FFC8
:1048400007EB4700002608EB4007B85DFFF73CFF89
:10485000761CF6B2062EF8D3A41D6D1CE4B2EDB2A0
:1048600001E0DFF84C8119F805000028DBD1BDE834
:10487000F0872038C7B2782C04D90AF1010000244F
:1048800000F0FF0A51462046FFF77AFF5FF000066E
:1048900006EB071118F80100FFF716FF761CF6B2B9
:1048A000082EF5D30AF10100C1B22046FFF768FFD8
:1048B0005FF0000606EB071101EB0800007AFFF736
:1048C00003FF761CF6B2082EF4D308346D1CE4B254
:1048D000EDB219F805000028CBD1C8E72DE9F04169
:1048E0000F46804600255401FFF74AFF184E761CFC
:1048F000305DFFF7E9FE6D1CEDB2641C102DF7D39F
:104900007F1CF9B24046FFF73BFF0025305DFFF703
:10491000DBFE6D1CEDB2641C102DF7D3BDE8F081F9
:104920002DE9F04798461746824600260C46DDF8EA
:1049300020904AE021465046FFF722FF554640E0CE
:10494000000C014000540040801A060040420F0055
:10495000F40C0020494943204572726F7220310ADD
:104960000000000001000300494943204572726FB6
:104970007220320A000000008200070049494320EB
:104980004572726F7220330A0000000049494320CB
:104990004572726F7220340A0000000049494320BA
:1049A0004572726F7220350A0000000096030108FC
:1049B0006E01010819F80600761CFFF785FE6D1CD4
:1049C000EDB2BD42F6D3641CE4B24445B2D34EE727
:1049D00038B55E498022A1F1200000F0C5F85B499E
:1049E0004FF4C8728031A1F1900000F0BDF80121B0
:1049F000082003F03CFA0220ADF8000003208DF8F7
:104A0000020010208DF803006946514802F093FE21
:104A10004FF48024204602F0F1FB4E4908200C6040
:104A2000487101208871084602F08AFB38BD10B534
:104A3000002003F0AEF90121BDE81040C80503F0E5
:104A40001FBA45490320086070474448817A4248AC
:104A500009B1052100E001210160704738B514203B
:104A60008DF8000002208DF8010000248DF802402E
:104A700001208DF80300684602F01DFA2A208DF807
:104A800000008DF80140684602F015FA38BD304A42
:104A900000284FF00201104601D002F0BABE02F029
:104AA000BABE10B5FFF794FFFFF7C1FFFFF7D6FFBF
:104AB000BDE8104001F002B90A46014623482038FB
:104AC00000F070B80A4601462048203800F052B87D
:104AD0000A4601461D48103800F064B80A460146EF
:104AE0001A48103800F046B8F0B500230A243025E3
:104AF00037261F4611E000BFB4EB107F02D905EB4B
:104B0000107C01E006EB107C01F813C001EB430CB4
:104B100000015B1C8CF80170DBB29342ECD3F0BD5A
:104B20000F4810B50168001D0468001D00680818D2
:104B30000AD008220B49FFF7D7FF0A492046042272
:104B4000BDE810401031CFE710BD000084180020F0
:104B5000000C0140F80D0020080F0020341B00203D
:104B6000E8F7FF1F020E00200260C1604160816013
:104B70000020704770B5002483680FE0C5680668A0
:104B80005B1C35449D4200D8C36845689D4207D0F0
:104B900011F8015B866835708360641C9442EDD324
:104BA000204670BD30B500230DE04468651C4560AB
:104BB0002478CC54C46805682C4445685B1CAC421E
:104BC00001D8C468446045688468A54204D0934213
:104BD00002D204689C42E8D8184630BD10B50021C6
:104BE000426807E0C3680468491C2344521C93428E
:104BF00000D8C2688368934202D003688B42F1D820
:104C0000084610BDF0B54468059E05680AE027789F
:104C10008F420CD0C768D0F800C0641C6744A7421C
:104C200000D8C4688768A74201D06D1EEFD28168A2
:104C3000A14228D0691C26D0C768D0F800C0611CEA
:104C4000674409E0C16809E00F7897420BD0C76854
:104C5000D0F800C0491C67448F42F3D987688F425F
:104C600001D06D1EF0D282688A420CD06A1C0AD034
:104C7000C268076817444A1C974200D8C268016896
:104C80004D1B00210DE00020F0BD00BF14F8017B9A
:104C90005F54C768D0F800C0491C6744A74200D8D9
:104CA000C468944206D0B14204D207688F4201D949
:104CB0006D1EEBD242600846F0BDF0B54468066850
:104CC00009E025788D420BD0C5680768641C3D4417
:104CD000A54200D8C4688568A54201D0761EF0D2EE
:104CE0008568A54227D0751C25D0C56807682F4464
:104CF000651C09E0C56809E02F788F420BD0C768B2
:104D0000D0F800C06D1C6744AF42F3D98768AF424A
:104D100001D0761EF0D28168A9420CD0711C0AD055
:104D2000C16807686D1C3944A94200D8C56801688C
:104D30008E1B00210DE00020F0BD00BF14F8017BA8
:104D40005754C768D0F800C0491C6744A74200D830
:104D5000C468AC4206D0994204D207688F4201D998
:104D6000761EEBD2022908DCC2680021641E944240
:104D700003D2C2680368D418641E44600846F0BDBC
:104D8000F0B54468056809E026788E420BD0C66805
:104D90000768641C3E44A64200D8C4688668A642E0
:104DA00001D06D1EF0D28168A1420CD06D1C0AD0DA
:104DB000C1680568641C2944A14200D8C4684168E0
:104DC000066800250DE00020F0BD00BF11F8017B52
:104DD0005755C768D0F800C06D1C67448F4200D893
:104DE000C168A14203D09D4201D2761EEED241603D
:104DF0002846F0BDF0B54468059E002705680EE022
:104E0000B94202D1277897420FD014F8017BD0F82D
:104E10000CC0D0F800E0F444A44500D8C468D0F831
:104E200008C0A44501D06D1EEAD28168A1420CD011
:104E30006D1C0AD0C1680268641C1144A14200D8EC
:104E4000C4684168056800220DE00020F0BD00BF85
:104E500011F8017B9F54C768D0F800C0521C67440A
:104E60008F4200D8C168A14203D0B24201D26D1E68
:104E7000EED241601046F0BD0360B2FBF3F2426037
:104E8000016100218160C160084670472DE9F04151
:104E9000C568174688460446002614E060686D1C05
:104EA000854200D30025A068A8420ED02069E168A1
:104EB000226801FB02002268414608F0FFF82168E1
:104EC000E5608844761CBE42E8D33046BDE8F081F8
:104ED0002DE9F041002590460E4604462F4612E08B
:104EE0002069A168226801FB02012268304608F0AF
:104EF000E5F820680644A068401CA06061686D1C4D
:104F0000884200D3A760A068E168884204D0606846
:104F1000A84201D94545E3D32846D7E70021826856
:104F200005E04368491C521C9A4200D30022C36822
:104F3000934202D043688B42F3D808467047000082
:104F400070B5294D2878012815D140212748FFF751
:104F5000BFFD0404240C4FF000060DD02246C021F2
:104F6000224800F0A1FF2146012001F086F901202E
:104F700001F05CF86E6070BD2E7070BD1B4910B5FD
:104F80004031032001F02BFB81B218484030FFF77D
:104F900099FDBDE81040032001F058B870B51448E1
:104FA000006805281FD1104C207800281BD16068AC
:104FB000411C6160052816D10020606040210B482B
:104FC000FFF786FD05042D0C0DD02A46C0210748A9
:104FD00000F06AFF2946012001F04FF9012001F09D
:104FE00025F80120207070BD280E0020941A0020A2
:104FF000080F00202DE9F0414C4E88B000243068A5
:105000004B4D688068884B4F39880840800507D52C
:105010004FF6FF5030602878401C2870FFF7BEFF25
:10502000688839880840000401D500F05BFE688874
:1050300039884FF6FF380840400504D5C6F800808F
:105040003D4840688047698838880140890402D516
:105050004DF6FF71316069880140C80405D54EF6F0
:10506000FF703060002000F0F0F96888398808404F
:1050700000050BD53148007810B100F082F902E04C
:10508000022000F0E2F94FF2FF7030606888398842
:105090000840C00546D54FF6FF6030602348001D2C
:1050A00000684FF00002000438D56868401C686052
:1050B0006868032833D91D48001F016809072ED4EA
:1050C000016889B2A9601E494FEA0D0301EB84070C
:1050D000D7F8007CBFB243F82470641C082CF5D3C9
:1050E000AC6844F00104AC60AC68A4B20460AC6885
:1050F00024F00104AC60AC68A4B2046030684005E0
:10510000FCD5C6F80080002053F8204001EB800653
:10511000A4B2C6F8004C401C0828F5D36A600720EA
:1051200000F093F908B0BDE8F0810000445C004055
:10513000300E00202C0F0020900E00200C0F0020BD
:1051400000500040FFF756BF4FF4802002F056B8E1
:1051500010B5FFF7E5FC764800240068847200F083
:10516000F1F801F01DFA7348046010BD704810B5E5
:105170000068714A00218172D2794272C172084678
:1051800000F0D4FE4FF40071002000F0E7FE102183
:10519000002000F0F8FE4021002001F04AF88021B4
:1051A000002001F03AF8002000F07CFF634890F8FE
:1051B0002C10002001F07FF8002000F047FF0021B4
:1051C000012000F0CBFEC021012001F026F82021B3
:1051D000012000F0D8FE0021012000F0EAFE4FF48B
:1051E000C061022000F0BAFE4FF48071022001F08D
:1051F00014F80021022000F0DCFE2021022000F043
:10520000C2FE0021032000F0A9FE4FF488710320A4
:1052100001F00FF84021032001F04DF84FF4405108
:10522000032000F0C6FE0021032000F0ACFE0020A9
:1052300000F084FC3F490120086010BD4048807A9E
:10524000002802D03B4905200860704739490420F6
:105250000860704739481C380178202901D10021A5
:1052600001707047704710B13448183870473049A2
:105270000820096808820020704710B12F481838AC
:1052800070472B4908200968088200207047284A87
:1052900010B500211268212802D0202808D019E07A
:1052A000107800F07F00212814D1AFF231010AE01C
:1052B000107800F07F00212801D1AFF255011F4B7B
:1052C00020201C3B187029B1002091615082884732
:1052D000002010BD022010BD15490968097801F0B1
:1052E0007F01212903D1022803D0222801D00220E6
:1052F0007047002070471149103900F049BA0F4932
:10530000083900F045BA0A490968C978042901D961
:1053100000207047094A303202EBC10100F038BA70
:1053200009B9012801D90220704700207047000008
:10533000200F0020080F002098090108900E00207F
:10534000341B002010B50120FFF7A1FB62480121AA
:1053500001600021614A0160031D19604FF4E051B2
:1053600011800160002010BD10B55B4C0120206051
:10537000211D00200860FFF78AFB03202060002029
:1053800010BDF8B55449002000900A68544B554CA4
:1053900092B200BF03EB8005D5F8005CADB244F8D3
:1053A0002050401C0828F5D342F48060086040F08B
:1053B0000100086020F001050D60474A121D1068C9
:1053C0004005FCD54FF6FF301060002054F82060F7
:1053D00003EB8007B6B2C7F8006C401C0828F5D371
:1053E00045F008000860086880B240F004000860DA
:1053F0003D4B18680090186820F0030040F0010051
:1054000018603A48046844F0040404601468E40432
:1054100009D54EF6FF7414600A6892B222F00802B1
:105420000A6000991960016821F004010160F8BD6B
:1054300010B5294C206880B220F004002060FFF7EE
:1054400004FB4FF43F40206010BD2DE9F041284C93
:10545000072800D020702278254D06270521042634
:105460001D48062A0BD2DFE802F0030C11161E2796
:10547000686810B12170BDE8F081FFF7D9FF27708F
:10548000F9E7FFF7D5FF2670012022E002206070C7
:1054900003202070EFE76078401E6070607800287D
:1054A000E9D12670E7E7026892B242F0100202608A
:1054B00021700A206070DEE76178491E61706178B2
:1054C0000029D8D1016889B221F01001016027704C
:1054D00000206860CFE70000405C00402C0F0020F7
:1054E00000500040141B00200070004010ED00E050
:1054F000100F002010B5FB4C30B1FB48006800686D
:10550000804720680A3010BD2168012008820020F1
:1055100010BDF44810B50068F44AC1785278914241
:1055200003D882780AB982880AB1022010BD81723C
:10553000ED48006840688047002010BD10B5E94C78
:1055400030B1E94800688068804720680C3010BDA1
:10555000216801200882002010BD10B5E14CE44A0A
:1055600020681268C17892694079904721688A7AE8
:1055700022B118B9087908B9887808B1022010BD9D
:10558000D9480068C068804720684179C172C178F5
:105590000173002010BDD34910B5096860B1D5482A
:1055A000002202800A7853060AD002F07F02012A04
:1055B00016D0022A16D001E002200882002010BD79
:1055C000497A8A06027802D542F0020201E002F02E
:1055D000FD0249060270D1B211D401F0FE0110E0C3
:1055E000C44810BD4A7911071306C34A02EB916102
:1055F000D1F8001C07D5C1F3011106E0017841F094
:105600000101017003E0C1F301310129F6D0B64870
:10561000006800698047E3E72DE9F041B148006880
:10562000017811F07F0102D0022905D066E0417AAD
:1056300001F0DF0141724EE0418800295ED101791D
:10564000F1BB4179AC4D21F080040A0605EB8402E0
:10565000A64BD2F8002C03D5C2F30112120102E0CE
:10566000C2F3013212031E782346A64246D93AB34A
:10567000807A28B308064FEA84000ED52844D0F873
:10568000000CC0F30110012821D1184600F09CFD48
:105690002046302100F077FC19E04619D6F8000CBE
:1056A000C0F30130012812D14BF68F7748F2800801
:1056B000A4B1184600F076FDD6F8000C384000E0A2
:1056C0001CE080F4405040EA0800C6F8000C864810
:1056D0000068406980470020BDE8F081874890F865
:1056E0002C10002000F0E7FDD5F8000C384080F4C5
:1056F000405040EA0800C5F8000CE8E70220EBE75C
:1057000070B578487C4D0368597921F0800005EB2D
:1057100080000C06D0F8004C21F0800203D5C4F3C1
:105720000114240102E0C4F3013424036F4D2D78E9
:10573000954210D95A8872B96CB19A7A5AB1090651
:10574000D0F8001C48F2800207D548F6BF73194014
:1057500081F0100106E0022070BD4BF68F731940F6
:1057600081F480511143C0F8001C5F4800688069D3
:105770008047002070BD5B4810B50068417A41F059
:105780002001417258480068C0698047002010BD60
:10579000544A13685A8A10B10868104470478888C0
:1057A000801A1882002070472DE9F047DFF8348115
:1057B000534F4FF03009D8F8001001F11005088A56
:1057C0000E7A08B9042E04D0AC88A04216D804265C
:1057D00015E04848801E0178012903D007261020D3
:1057E00038802BE0474A00211268474B120403EB34
:1057F000D2325160A7F8009001701FE00226844267
:1058000000D90446A968204688478246002000F057
:105810001DFD01462246504600F046FB2146002071
:1058200000F02BFD2888001B2880688820446880B1
:10583000A7F8009035494FF440500880D8F8000090
:105840000672BDE8F08770B5264D28680178447867
:105850004A0606D001F07F00012828D002282BD06C
:1058600035E0092C06D0052C07D0032C0ED0012CD6
:1058700014D02CE0FFF74DFE28E0C1787F292ED808
:10588000817861BB818851BB807A27E0C17801298A
:105890001DD18088D8B9FFF76EFF17E0C1780129C4
:1058A00015D1818899B9407A80060AD40FE00B2C73
:1058B0000DD1FFF752FE09E0012C02D0032C03D0DA
:1058C00005E0FFF7A9FE01E0FFF71AFF48B108491C
:1058D0002046096849698847032819D008B108207B
:1058E00024E017E0200F0020280F0020E00E002009
:1058F000240F00201A0F002000500040900E0020BE
:10590000300F0020505C0040006000402E0F00204F
:1059100009200BE0DE4A062000211268DD4B12044C
:1059200003EBD2325160DC4A3021118029680872C1
:1059300070BDF8B5D94CDA4D0926206800272968D2
:105940004278062A05D0AAB1082A4ED00A2A52D097
:105950006EE0027852066BD18078012804D00228CC
:1059600004D0032804D063E0C96959E0096A57E00C
:10597000496A55E04288BABBC288022A58D10279E6
:1059800092BB0278530601D1838833B102F07F02C3
:10599000012A05D0022A0DD04AE0AFF205413FE0CE
:1059A0008A69407900219047F0B92068807A002800
:1059B000F3D13DE0417901F00F0001F070020B06D8
:1059C000B84901EB8001D1F8001C03D5C1F30111E6
:1059D000090102E0C1F301310903B34B1B78834293
:1059E00026D90AB90029D8D122E0007840061FD173
:1059F000AFF2FF4114E0027802F07F02012A17D1D2
:105A0000827AAAB142889AB902798AB9C288012AEF
:105A10000ED18A6940790021904748B9AFF2E3413D
:105A200031B120684782816100208847002006E06C
:105A300029682068096940788847032813D02168BD
:105A40000A8AA2F57F43FF3B0BD002280ED06AB131
:105A50000878000625D5C888009082420AD90882B5
:105A600018E00E72F8BD20680672F8BD4FF008000D
:105A70000872F8BD0ED228688C4B90F82C00824238
:105A800001D21F7006E0B2FBF0F400FB142008B94D
:105A900001201870286890F82C008882BDE8F84032
:105AA00082E603200872824900030880F8BD81481D
:105AB00010B590F82C10002000F0FDFB774800682E
:105AC000007A082802D0092809D006E078494FF466
:105AD00080500880704910200880002010BD0120EF
